:1000000000200010C100000049010000490100006B
:1000100001000000010000000100000001000000DC
:100020000100000001000000010000004901000083
:10003000010000000100000049010000490100002A
:100040004901000049010000490100004901000088
:100050004901000049010000490100004901000078
:1000600049010000490100001D0100004901000094
:100070004901000049010000490100004901000058
:100080004901000049010000490100004901000048
:100090004901000049010000490100004901000038
:1000A0004901000049010000490100004901000028
:1000B0004901000049010000490100004901000018
:1000C00000F008F800F00EF800F016F800F01EF846
:1000D00062B6FEE7014A024B1360F746002000A01B
:1000E00000100000024A034C136823431360F746D4
:1000F0008080044000040000024A034B1360012387
:100100009360F746004000407F8D5B00014A024B40
:100110001360F74600E100E0000400008CB5054ADA
:10012000054B1360074A01231360044A044B136014
:100130008CBDC046002300A00010000080E200E05B
:0C014000000400000C400040FEE7C04638
:04000003000000C039
:00000001FF
