:0800000000200010C100000007
:1000C00000F01CF800F022F800F02AF800F040F8E8
:1000D000084D4126084A13680124234004D01360C8
:1000E000024A094B13602E60F4E7C046002300A0CB
:1000F000000000A01C4006400C400040014A024B9A
:100100001360F746002000A000100000024A034CD4
:10011000136823431360F7468080044000440000C6
:10012000064A074B1360074A01231370064A4D2302
:100130001360064A05231360F746C04600C000401E
:100140000400FFFF94800440204006400040064029
:10015000014A024B1360F746004000407F8D5B0070
:10016000024FC046C046013FFBD1F74620A1070021
:04000003000000C039
:00000001FF
