:0800000000200010C100000007
:1000C00000F014F800F01AF8064A074D0023012446
:1000D0004126137300F032F8147300F02FF82E60ED
:1000E000F7E7C046000000A01C400640014A024B52
:1000F0001360F746002000A000100000084A094CD9
:10010000136823431360084A084B1360084A01230D
:100110001370084A4D231360074A05231360F746FE
:10012000808004400040000000C000400400FFFF49
:10013000948004402040064000400640024FC046E4
:0C014000C046013FFBD1F74620A107009C
:04000003000000C039
:00000001FF
